:10010000312D042180004E230DFAE1027EFE20CA2B
:100110000701FE24CAE102E65FD641FE10D2DB02EF
:1001200032D703237EFE21C4C2023AD7034F3E1BBF
:10013000CDBD027CB5CAE702010A00097E23666FC5
:100140002B7EFE80DAE702E53ADA02B7C28F01C3FE
:1001500055014C4C4F0E003E21CDBD020E033E1EFC
:10016000CDBD0221800422E003444D3E24CDBD02DA
:100170003E27CDBD022AE003017D00091E03015286
:10018000010ABEC28F0123031DC28101C3ED02110A
:100190006903CDBE03E1235E2356EB22DC03EB01B2
:1001A0000600095E2356EB2329296C2600292929FC
:1001B0002922D803EB010500095E2356EB22DE035A
:1001C000EB0100002AD80322DA0321800422E00395
:1001D000D5C54B423E1ECDBD02C1C53E21CDBD029F
:1001E0002AE0030180000922E003444D3E24CDBDF6
:1001F000023E27CDBD02C1D1032ADC03377D997CA5
:1002000098D20802010000132ADA032B22DA037CB9
:10021000B5C2D0012AD8032929444D21E004112078
:10022000001936E50B79B0C221022ADE03EB01008A
:10023000002AD80322DA0321800422E003D5C54B2B
:10024000423E1ECDBD02C1C53E21CDBD022AE00306
:100250000180000922E003444D3E24CDBD023E2A28
:10026000CDBD02C1D1032ADC03377D997C98D275BC
:1002700002010000132ADA032B22DA037CB5C23D07
:10028000020E003E21CDBD020E033E1ECDBD022159
:10029000800422E003444D3E24CDBD023E27CDBD67
:1002A000022AE003017D00090152011E030A77239F
:1002B000031DC2AD023E2ACDBD02C3F3022A0100D6
:1002C0006FE9118503CDBE033E09CDBD02E6DFFE19
:1002D00059C2F3023EFF32DA02C90011F602C3F03E
:1002E00002110603C3F002111B03C3F00211430302
:1002F000CDBE03C30000494E56414C4944204452F0
:100300004956450D0A004E4F204452495645205348
:1003100050454349464945440D0A00445249564513
:1003200020535045434946494544204953204E4FA8
:10033000542041204D454D4F525920445249564575
:100340000D0A004D454D4F52592044524956452003
:10035000495320414C524541445920464F524D414A
:100360005454454421210D0A000D0A464F524D4177
:100370005454494E47204D454D4F525920445249FF
:1003800056450A0D00434F4E4649524D20444553B1
:1003900054524F5920414C4C2046494C4553204F14
:1003A0004E20544845204D454D4F52592044524906
:1003B0005645202859206F72204E293F20001AB739
:1003C000C813CDC803C3BE03F5C5D5E55F0E02CD86
:1003D0000500E1D1C1F1C9000000000000000000EB
:0203E00000001B
:0000000000
